{
  "_format": "hh-sol-artifact-1",
  "contractName": "TitleDeedTokenization",
  "sourceName": "contracts/LandTitleRegistry.sol",
  "abi": [
    {
      "anonymous": false,
      "inputs": [
        {
          "indexed": true,
          "internalType": "address",
          "name": "to",
          "type": "address"
        },
        {
          "indexed": true,
          "internalType": "uint256",
          "name": "tokenId",
          "type": "uint256"
        },
        {
          "indexed": false,
          "internalType": "string",
          "name": "documentHash",
          "type": "string"
        }
      ],
      "name": "TokenMinted",
      "type": "event"
    },
    {
      "inputs": [
        {
          "internalType": "address",
          "name": "to",
          "type": "address"
        },
        {
          "internalType": "string",
          "name": "documentHash",
          "type": "string"
        }
      ],
      "name": "mintToken",
      "outputs": [],
      "stateMutability": "nonpayable",
      "type": "function"
    },
    {
      "inputs": [],
      "name": "nextTokenId",
      "outputs": [
        {
          "internalType": "uint256",
          "name": "",
          "type": "uint256"
        }
      ],
      "stateMutability": "view",
      "type": "function"
    },
    {
      "inputs": [
        {
          "internalType": "uint256",
          "name": "",
          "type": "uint256"
        }
      ],
      "name": "tokenDocumentHashes",
      "outputs": [
        {
          "internalType": "string",
          "name": "",
          "type": "string"
        }
      ],
      "stateMutability": "view",
      "type": "function"
    }
  ],
  "bytecode": "0x6080604052348015600f57600080fd5b506108b58061001f6000396000f3fe608060405234801561001057600080fd5b50600436106100415760003560e01c80633d02d0c91461004657806375794a3c146100625780638096480514610080575b600080fd5b610060600480360381019061005b91906103a0565b6100b0565b005b61006a610142565b6040516100779190610415565b60405180910390f35b61009a6004803603810190610095919061045c565b610148565b6040516100a79190610508565b60405180910390f35b6000805490506000808154809291906100c890610559565b9190505550808373ffffffffffffffffffffffffffffffffffffffff167fdf92894dc4675a7333caa5903b69cf5d8e8ec0d3f361c88207b6688e525703bb846040516101149190610508565b60405180910390a38160016000838152602001908152602001600020908161013c91906107ad565b50505050565b60005481565b60016020528060005260406000206000915090508054610167906105d0565b80601f0160208091040260200160405190810160405280929190818152602001828054610193906105d0565b80156101e05780601f106101b5576101008083540402835291602001916101e0565b820191906000526020600020905b8154815290600101906020018083116101c357829003601f168201915b505050505081565b6000604051905090565b600080fd5b600080fd5b600073ffffffffffffffffffffffffffffffffffffffff82169050919050565b6000610227826101fc565b9050919050565b6102378161021c565b811461024257600080fd5b50565b6000813590506102548161022e565b92915050565b600080fd5b600080fd5b6000601f19601f8301169050919050565b7f4e487b7100000000000000000000000000000000000000000000000000000000600052604160045260246000fd5b6102ad82610264565b810181811067ffffffffffffffff821117156102cc576102cb610275565b5b80604052505050565b60006102df6101e8565b90506102eb82826102a4565b919050565b600067ffffffffffffffff82111561030b5761030a610275565b5b61031482610264565b9050602081019050919050565b82818337600083830152505050565b600061034361033e846102f0565b6102d5565b90508281526020810184848401111561035f5761035e61025f565b5b61036a848285610321565b509392505050565b600082601f8301126103875761038661025a565b5b8135610397848260208601610330565b91505092915050565b600080604083850312156103b7576103b66101f2565b5b60006103c585828601610245565b925050602083013567ffffffffffffffff8111156103e6576103e56101f7565b5b6103f285828601610372565b9150509250929050565b6000819050919050565b61040f816103fc565b82525050565b600060208201905061042a6000830184610406565b92915050565b610439816103fc565b811461044457600080fd5b50565b60008135905061045681610430565b92915050565b600060208284031215610472576104716101f2565b5b600061048084828501610447565b91505092915050565b600081519050919050565b600082825260208201905092915050565b60005b838110156104c35780820151818401526020810190506104a8565b60008484015250505050565b60006104da82610489565b6104e48185610494565b93506104f48185602086016104a5565b6104fd81610264565b840191505092915050565b6000602082019050818103600083015261052281846104cf565b905092915050565b7f4e487b7100000000000000000000000000000000000000000000000000000000600052601160045260246000fd5b6000610564826103fc565b91507fffffffffffffffffffffffffffffffffffffffffffffffffffffffffffffffff82036105965761059561052a565b5b600182019050919050565b7f4e487b7100000000000000000000000000000000000000000000000000000000600052602260045260246000fd5b600060028204905060018216806105e857607f821691505b6020821081036105fb576105fa6105a1565b5b50919050565b60008190508160005260206000209050919050565b60006020601f8301049050919050565b600082821b905092915050565b6000600883026106637fffffffffffffffffffffffffffffffffffffffffffffffffffffffffffffffff82610626565b61066d8683610626565b95508019841693508086168417925050509392505050565b6000819050919050565b60006106aa6106a56106a0846103fc565b610685565b6103fc565b9050919050565b6000819050919050565b6106c48361068f565b6106d86106d0826106b1565b848454610633565b825550505050565b600090565b6106ed6106e0565b6106f88184846106bb565b505050565b5b8181101561071c576107116000826106e5565b6001810190506106fe565b5050565b601f8211156107615761073281610601565b61073b84610616565b8101602085101561074a578190505b61075e61075685610616565b8301826106fd565b50505b505050565b600082821c905092915050565b600061078460001984600802610766565b1980831691505092915050565b600061079d8383610773565b9150826002028217905092915050565b6107b682610489565b67ffffffffffffffff8111156107cf576107ce610275565b5b6107d982546105d0565b6107e4828285610720565b600060209050601f8311600181146108175760008415610805578287015190505b61080f8582610791565b865550610877565b601f19841661082586610601565b60005b8281101561084d57848901518255600182019150602085019450602081019050610828565b8683101561086a5784890151610866601f891682610773565b8355505b6001600288020188555050505b50505050505056fea2646970667358221220e668cf2eb190ebb54e526ee7323d22ddf251bbdc6b55375df4abfbacedbd50d664736f6c634300081b0033",
  "linkReferences": {},
  "deployedLinkReferences": {}
}